:020000040800F2
:10000000B834012069020008C51700084D10000827
:1000100019170008090A0008533000080000000002
:10002000000000000000000000000000B101000816
:10003000750C00080000000005020008A528000853
:10004000830200088302000883020008830200087C
:10005000830200088302000883020008830200086C
:10006000830200088302000883020008830200085C
:10007000830200088302000883020008830200084C
:1000800083020008830200088302000800000000C9
:1000900000000000000000000000000083020008D3
:1000A000830200088302000883020008830200081C
:1000B000830200088302000883020008830200080C
:1000C00083020008830200088302000883020008FC
:1000D00083020008592C0008830200080000000079
:1000E0008302000883020008830200080000000069
:1000F0000000000000000000000000008302000873
:100100000000000083020008830200088302000848
:1001100000000000000000000000000000000000DF
:10012000830200088302000883020008830200089B
:100130008302000800000000000000000000000032
:100140000000000000000000000000008302000822
:10015000830200088302000883020008992D00082A
:100160008302000883020008000000000000000075
:10017000000000000000000000000000000000007F
:1001800000000000830200080000000000000000E2
:100190008302000883020008DFF810D000F0C6FBDD
:1001A00000480047A1460008AFF30080B8340120A2
:1001B0002A4B19680868B0E8F04F80F30988BFF34C
:1001C0006F8F4FF0000080F311887047000000002F
:1001D00006480068006880F3088862B661B6BFF31D
:1001E0004F8FBFF36F8F00DF00BF00BF08ED00E04F
:1001F000DFF80C00016841F470010160704700BF36
:1002000088ED00E0EFF30980BFF36F8F134B1A689E
:100210001EF0100F08BF20ED108A20E9F04F10608B
:1002200008B44FF0500080F31188BFF34F8FBFF335
:100230006F8F05F001FB4FF0000080F3118808BCC0
:1002400019680868B0E8F04F1EF0100F08BFB0EC56
:10025000108A80F30988BFF36F8F70472800002051
:10026000EFF30580704700000648804706480047C6
:10027000FEE7FEE7FEE7FEE7FEE7FEE7FEE7FEE756
:10028000FEE7FEE7ED2800089901000840EA0103B7
:100290009B0703D009E008C9121F08C0042AFAD23C
:1002A00003E011F8013B00F8013B521EF9D2704700
:1002B000D2B201E000F8012B491EFBD270470022A8
:1002C000F6E710B513460A4604461946FFF7F0FF55
:1002D000204610BD2DE9FE4F81EA030404F00044DE
:1002E00021F0004100944FF0000B23F0004350EA4E
:1002F00001045ED052EA03045BD0C3F30A54C1F395
:100300000A552C44A4F2F3340194A0FB0254C1F327
:10031000130141F48011C3F3130343F4801301FB71
:10032000024400FB034E840A970A44EA815447EAD8
:100330008357A4FB076802958D0A05FB07854FEAE2
:10034000932C04FB0C542705029D4FEA065847EAFC
:100350001637B5EB08056EEB070C870E920E47EAD1
:10036000811742EA8312A7FB0201B6EB0B0164EB93
:1003700000042B0D43EA0C335E1844EB1C50DA46A4
:100380005146E7FB0201C5F313044FEA0B3343EA7E
:1003900014534FEA0432019C43EA0603A4F10C040F
:1003A0000294009CCDE900B400F0C2F803B0BDE8AF
:1003B000F08F00200146F9E700F0004230F00040E5
:1003C0000AD0C10D01F56071C0F3160042EA015177
:1003D000C20840071143704700200146704701F0F2
:1003E000004330B421F0004150EA010206D00A0D6A
:1003F000A2F56072C1F31301002A02DC30BC0020B8
:100400007047440F44EAC104C100E01830BC00EB5F
:10041000C25000F047B830B50B46014600202022FC
:10042000012409E021FA02F59D4205D303FA02F501
:10043000491B04FA02F52844151EA2F10102F1DC61
:1004400030BD2DE9F05F0546002092469B46884668
:100450000646814640241BE0284641464746224640
:1004600000F085FA53465A46C01A914110D31146FE
:100470001846224600F06CFA2D1A67EB01084F4629
:1004800022460120002100F063FA17EB00094E41DB
:10049000201EA4F10104DFDC484631462A464346CB
:1004A000BDE8F09F0029A8BF7047401C490008BF65
:1004B00020F00100704710B4B0FA80FC00FA0CF094
:1004C00050EA010404BF10BC704749B1CCF12004CC
:1004D00021FA04F411FA0CF118BF01212143084359
:1004E000A3EB0C01CB1D4FEA00614FEA102042BF85
:1004F000002010BC704700EBC35010440029A4BF7B
:1005000010BC7047401C490008BF20F0010010BC1F
:10051000704710B5141E73F1000408DA401C41F155
:10052000000192185B411A4301D120F0010010BD77
:100530002DE9F04D92469B4611B1B1FA81F202E0ED
:10054000B0FA80F22032904600F002FA04460F46DC
:1005500040EA0A0041EA0B0153465A46084313D0C9
:10056000114653EA010019D0C8F14002504600F08C
:10057000FEF905460E4650465946424600F0E8F957
:10058000084305D0012004E020463946BDE8F08D3F
:100590000020054346EAE0762C4337430A9863057A
:1005A000E40AA0EB08000022FD0A44EA47540A309E
:1005B00002D500200146E9E7010510196941DDE98E
:1005C000084500196941BDE8F04DA2E72DE9FE4F4D
:1005D000804681EA0300C00F0C46009021F00041E4
:1005E00023F00045B8EB0200A94105D24046214660
:1005F00090461C460B46024623F00040104347D06D
:10060000270DC7F30A00C3F30A510290401A019064
:1006100040286BDAC3F3130040F4801B0098924625
:1006200020B10023D2EB030A63EB0B0B0198594670
:10063000C0F14002504600F08BF906460D46504688
:100640005946019A00F0A3F910EB0800614100241B
:1006500087EA115284EAE7731A4340D0009A62B3E2
:10066000019A012A4FEA075215DC001B61EB0201D7
:100670004FF0004202EA0752CDE90042001C41F56A
:10068000801132462B46FFF753FF03B0BDE8F08FD1
:1006900040462146F9E7001B61EB0201001C41F5D1
:1006A000801300185B412018A2F5001747EB0301E7
:1006B00040EAD570B6196D4111E06D084FEA360673
:1006C00045EAC0754FEA0752001B61EB0201001CAE
:1006D00041F5801149084FEA300000195141324676
:1006E0002B4603B0BDE8F04FFFF713BF009801227F
:1006F00040000023D0EB020263EBE0730098214638
:100700004FEAE074B8EB000061EB0401E9E783F025
:1007100000435BE781F0004158E72DE9F04D81EAA5
:10072000030404F0004B21F0004514464FF0000A8A
:1007300023F0004150EA050220D054EA01021DD006
:10074000C5F30A570246C5F31303C1F31300C1F3FF
:100750000A5640F4801543F48013A7EB0608101BDB
:10076000D64608F2FD3873EB050002D308F1010804
:1007700001E092185B41B8F1000F03DA0020014656
:10078000BDE8F08D00204FF48011064684460EE04F
:10079000171B73EB050705D3121B63EB0503064319
:1007A0004CEA010C49084FEA300092185B4150EACC
:1007B0000107EDD152EA030012D082EA040083EA75
:1007C0000501084305D0101BAB4106D201220023CE
:1007D00006E000224FF0004302E06FF001025310E8
:1007E0001AEB06004CEB085110EB0A0041EB0B0131
:1007F000BDE8F04DFFF78DBE2DE9F04D00231A4600
:100800001B1A8A4103DB00200146BDE8F08DC1F3CD
:100810000A52C1F3130141F480154FF0000BD107C8
:1008200002D100186D41521E0027044640F2FF110C
:10083000384601EB620A3E468046024600204FF4ED
:10084000801100F094F8C2197141BB1846EB010009
:10085000B4EB030C75EB000C04D3E41A65EB000554
:1008600017460E46241908F101006D4180463428D0
:10087000E3DDF91946EB0600091BA84103D24FF04E
:10088000FF32134601E0002213461BEB070046EB44
:100890000A51BDE8F04DFFF73CBEC1F30A52C1F367
:1008A000130140F2FF3341F480119A4202DA002032
:1008B0000146704740F233439A42A2F2334202DCCF
:1008C000524200F054B800F043B8000030B5041EA6
:1008D00071F1000404DB4FF00044404264EB01017D
:1008E000141E73F1000405DB1C464FF00043524216
:1008F00063EB04038B4208BF824230BD30B5041E57
:1009000071F1000404DB4FF00044404264EB01014C
:10091000141E73F1000405DB1C464FF000435242E5
:1009200063EB0403994208BF904230BD064C074D6B
:1009300006E0E06840F0010394E8070098471034AF
:10094000AC42F6D3FFF72CFC406600086066000856
:10095000202A04DB203A00FA02F10020704791407F
:10096000C2F1200320FA03F3194390407047202A74
:1009700004DB203A21FA02F00021704721FA02F349
:10098000D040C2F120029140084319467047202A06
:1009900006DBCB17203A41FA02F043EAE07306E0A7
:1009A00041FA02F3D040C2F12002914008431946B7
:1009B000704770B58C1810F8015B15F0070301D172
:1009C00010F8013B2A1106D110F8012B03E010F8B2
:1009D000016B01F8016B5B1EF9D12B0705D40023D5
:1009E000521E0DD401F8013BFAE710F8013BCB1A77
:1009F000921C03E013F8015B01F8015B521EF9D56C
:100A0000A142D8D3002070BD00BFFEE710B5044658
:100A100000F032F95248007800287CD0ACB151483F
:100A2000D0ED000A504890ED000A01F047F84F4819
:100A300080ED000A4E48D0ED000A4E4890ED000AC5
:100A400001F01AFD4C4880ED000A4C48D0ED000A38
:100A5000464890ED000A00F011FA494880ED000A7E
:100A60004848D0ED000A444890ED000A00F07AFAB8
:100A7000454880ED000A4548008800F57A7000EE90
:100A8000100AB8EEC00A3E48D0ED000A30EE200A47
:100A90003D48D0ED000A30EE600ABDEEC00A10EE0F
:100AA000100A00B23A4908803848008800F57A7088
:100AB00000EE100AB8EEC00A3148D0ED000A30EE60
:100AC000600A3148D0ED000A30EE600ABDEEC00A7F
:100AD00010EE100A00B22F4908802C48008800F55B
:100AE0007A7000EE100AB8EEC00A2548D0ED000A70
:100AF00030EE600A2448D0ED000A30EE200ABDEE48
:100B0000C00A10EE100A00B2234908801F4800886E
:100B100000F57A7000E022E000EE100AB8EEC00A9C
:100B20001748D0ED000A30EE200A1748D0ED000A31
:100B300030EE200ABDEEC00A10EE100A00B21749CE
:100B400008800846B0F900301348B0F90020114879
:100B5000B0F900100E48B0F9000000F0DFFD10BD44
:100B600078010020B4000020A001002084010020B2
:100B7000B00000209C01002088010020CC00002053
:100B80008C010020D000002090010020AA0100204C
:100B90007A0100207C0100207E01002080010020DD
:100BA0002DED048B05F076FA06463DE001F0C0FB22
:100BB0001E48007800F07EFA1D480078FFF726FFF7
:100BC0001A480078401C1949087019480078401CE0
:100BD0001749087015480078012802DD00201349E4
:100BE000087013480078012802DD002010490870C1
:100BF00005F050FA0446A51B264600EE105AB8EE42
:100C0000400ADFED0C0A80EE808A18EE100AFFF72A
:100C1000D3FB41EC190B53EC192B07A002F01CFA83
:100C2000012004F0D7FC00BFC0E70000C501002090
:100C3000C401002000007A44436F6E74726F6C46EA
:100C400072657175656E63793A20252E326620488B
:100C50007A0D0A0010B54FF48051054800F008F9EC
:100C60004FF47A731A461946184600F057FD10BD26
:100C7000000402407047000010B5184890ED000ACB
:100C8000DFED170AB4EEE00AF1EE10FA1FDD90ED89
:100C9000000ADFED140AB4EEE00AF1EE10FA16D203
:100CA000114890ED000ADFED0E0AB4EEE00AF1EE15
:100CB00010FA0CDD90ED000ADFED0A0AB4EEE00A4E
:100CC000F1EE10FA03D201200849087004E0002078
:100CD00006490870FFF7BEFF10BD0000B4000020F9
:100CE000000034C200003442B0000020780100202F
:100CF0001CB54FF40051124800F0BAF81148032116
:100D000000234FF48072CDE900100FA1124805F0C6
:100D100081F9124802210023CA01CDE9001010A177
:100D2000134805F077F91348012100230A02CDE9A1
:100D3000001011A1134805F06DF904F02BFD1CBD46
:100D400000040240B0010020436F6E74726F6C5F4C
:100D50007461736B00000000A10B0008B401002057
:100D60004C69676874466C6F775F7461736B0000E1
:100D70000D120008B801002053656E645F74617342
:100D80006B000000DD270008F0B50A4600210023B3
:100D9000002400BF3DE0012505FA01F3156805EACE
:100DA00003049C4234D105684F000326BE40B5437E
:100DB000056015794E00B540066835430560157924
:100DC000012D02D01579022D16D185684F0003261A
:100DD000BE40B543856055794E00B54086683543C1
:100DE0008560456801268E40B54345604568967923
:100DF0008E40B6B235434560C5684F000326BE40FD
:100E0000B543C560D5794E00B540C6683543C56069
:100E1000491C1029BFD3F0BDF0B5002300244D07B5
:100E2000ED0E02FA05F3CE1000F1200555F826501C
:100E30004E07F70E0F26BE40B543CF1000F1200637
:100E400046F82750CE1000F1200555F8265045EA07
:100E50000304CE1000F1200545F82640F0BD0246FF
:100E6000002013690B400BB1012000E00020704707
:100E70000A0482617047816170470000B0EE401A39
:100E8000F0EE601A31EE612AF0EE420A2C4890ED45
:100E9000002A2C48D0ED002A02EEA02A284880ED36
:100EA000002A90ED002ADFED282AB4EEE22AF1EEC6
:100EB00010FA02DD9FED242A0FE0214890ED002A70
:100EC000DFED222AB4EEE22AF1EE10FA02D29FED13
:100ED0001F2A02E01A4890ED002A194880ED002AE6
:100EE00090ED002A1A48D0ED002A02EEA02A1948F7
:100EF000D0ED002A70EEE22A174890ED003AB0EEED
:100F0000420A03EE220A9FED152AB4EEC20AF1EE60
:100F100010FA02DD9FED112A0BE09FED112AB4EECD
:100F2000C20AF1EE10FA02D29FED0D2A01E0B0EEF6
:100F3000402AB0EE420A0748C0ED000A70470000A0
:100F40005C0100202801002000004843000048C345
:100F500024010020580100202C0100200000FA4349
:100F60000000FAC3B0EE401AF0EE601A31EE612ACA
:100F7000F0EE420A2C4890ED002A2C48D0ED002AD1
:100F800002EEA02A284880ED002A90ED002ADFED2D
:100F9000282AB4EEE22AF1EE10FA02DD9FED242AAF
:100FA0000FE0214890ED002ADFED222AB4EEE22A7C
:100FB000F1EE10FA02D29FED1F2A02E01A4890EDDE
:100FC000002A194880ED002A90ED002A1A48D0ED39
:100FD000002A02EEA02A1948D0ED002A70EEE22A7B
:100FE000174890ED003AB0EE420A03EE220A9FED58
:100FF000152AB4EEC20AF1EE10FA02DD9FED112AB5
:101000000BE09FED112AB4EEC20AF1EE10FA02D203
:101010009FED0D2A01E0B0EE402AB0EE420A0748EB
:10102000C0ED000A70470000640100202801002084
:1010300000004843000048C3240100206001002054
:101040002C0100200000FA430000FAC300BFFEE7B5
:101050001CB50121084601F0C7F80121042001F068
:10106000C3F84FF48070009001208DF80400002038
:101070008DF8060003208DF8050001208DF807008B
:1010800069460A48FFF780FE4FF4007000906946F9
:101090000748FFF779FE4FF480710448FFF7EBFE35
:1010A0004FF400710248FFF7E6FE1CBD000002404D
:1010B0000008024010B504462B4800F069F92B489F
:1010C00000F0E0F9284890ED000ADFED290A20EE53
:1010D000200A284880ED000A234890ED010ADFED40
:1010E000240A20EE200A244880ED000A1E4890EDD4
:1010F000020ADFED1F0A20EE200A204880ED000AD8
:101100001A4890ED000ADFED1E0A20EE200A1D4865
:1011100080ED000A154890ED010ADFED190A20EE76
:10112000200A194880ED000A104890ED020ADFED10
:10113000140A20EE200A154880ED000A94B1D0ED83
:10114000002A114890ED002A0E48D0ED001A0B48F5
:1011500090ED001A0848D0ED000A064890ED000A0C
:1011600000F000FD10BD0000783001208430012027
:101170000AE81C41D8000020DC000020E00000202C
:1011800039FA8E3CCC000020D0000020D400002092
:101190001CB50121022001F027F84FF440500090C7
:1011A00001208DF8040000208DF8060003208DF842
:1011B000050001208DF8070069460448FFF7E4FDAB
:1011C0004FF440510148FFF756FE1CBD0004024099
:1011D00070B50446002513E04FF480510A48FFF72C
:1011E00047FE4FF4167003F0CEF84FF480510648D6
:1011F000FFF741FE4FF4167003F0C5F8681CC5B246
:10120000A542E9DB70BD00000004024000BFFEE71C
:101210000120014908707047A100002010B52DED94
:10122000048B84B09FED270AB0EE408A9FED250A1B
:10123000F0EE408A9FED230AB0EE409A9FED210A1E
:101240008DED010A9FED1F0A8DED020A9FED1D0A2B
:101250008DED030A002419E001A800F013F99DEDBB
:10126000010A30EE080AB0EE408A9DED020A30EE27
:10127000280AF0EE408A9DED030A30EE090AB0EE2E
:10128000409A0A2003F07FF8601CC4B2C82CE3DB4C
:101290009FED0D0AC8EE000A0C48C0ED000A9FED54
:1012A0000A0AC8EE800AC0ED010A9FED070AC9EEDE
:1012B000000AC0ED020A01200549087004B0BDEC27
:1012C000048B10BD00000000000048435430012092
:1012D000A000002010B5FFF7BBFE642003F053F818
:1012E00000BF80216B2000F0FCF90028F9D06420B9
:1012F00003F049F800BF00216B2000F0F2F900284C
:10130000F9D000BF032000F0AAF90028FAD000BFEE
:10131000022000F09CF90028FAD000BF00213820FC
:1013200000F0DFF90028F9D000BF00216A2000F0AA
:10133000D8F90028F9D000BF0021232000F0D1F90E
:101340000028F9D000BF8021372000F0CAF900281A
:10135000F9D0752000F05DF90446682C14D100BF67
:1013600001216B2000F0BDF90028F9D000BF002159
:101370006C2000F0B6F90028F9D000BF322000F050
:1013800093F90028FAD001E0012010BD0020FCE70D
:101390007FB5044602AA06213B2000F009F9054664
:1013A000012D1AD19DF809009DF8081040EA01208E
:1013B00000B2ADF800009DF80B009DF80A1040EA5D
:1013C000012000B2ADF802009DF80D009DF80C1050
:1013D00040EA012000B2ADF80400BDF9000000EEC3
:1013E000100AB8EEC00ADFED230A20EE200A84EDD1
:1013F000000ABDF9020000EE100AB8EEC00ADFEDE7
:101400001D0A20EE200A84ED010ABDF9040000EE59
:10141000100AB8EEC00ADFED170A20EE200A84EDAC
:10142000020A1548007818B3144890ED000A1448D1
:10143000D0ED000A94ED001A00EE810A84ED000A56
:101440000E4890ED010A0E48D0ED010A94ED011A04
:1014500000EE810A84ED010A084890ED020A08486E
:10146000D0ED020A94ED021A00EE810A84ED020A20
:101470007FBD0000D5FF7F39A10000204065000836
:10148000346500087FB5044602AA0621432000F017
:101490008FF80546012D1AD19DF809009DF8081016
:1014A00040EA012000B2ADF800009DF80B009DF865
:1014B0000A1040EA012000B2ADF802009DF80D00CC
:1014C0009DF80C1040EA012000B2ADF80400344849
:1014D000007820B3BDF90010324AB2F9000003F0E1
:1014E000C1F8ADF80000BDF902102E4AB2F90200B1
:1014F00003F0B8F8ADF80200BDF90410294AB2F9BA
:10150000040003F0AFF8ADF80400BDF80000254971
:101510000880BDF802004880BDF804008880BDF94D
:10152000000000EE100AB8EEC00ADFED1F0A20EE40
:10153000200A84ED000ABDF9020000EE100AB8EEA0
:10154000C00ADFED190A20EE200A84ED010ABDF978
:10155000040000EE100AB8EEC00ADFED130A20EE18
:10156000200A84ED020A0E480078C0B194ED000A0A
:101570000E48D0ED000A30EE600A84ED000A94EDCA
:10158000010AD0ED010A30EE600A84ED010A94ED03
:10159000020AD0ED020A30EE600A84ED020A7FBD35
:1015A000A0000020A8000020F1FF793D5430012068
:1015B0002DE9F04107460D46164602F0DFFFD02028
:1015C00002F0A8FF03F01CF88046384602F0A2FFA4
:1015D00003F016F8804602F0D1FFD12002F09AFF06
:1015E00003F00EF8804600240CE002F063FF305553
:1015F000681EA04202D002F015FF01E002F03AFF9F
:10160000601CC4B2AC42F0DB02F0DAFF4046BDE839
:10161000F08170B5044602F0B1FFD02002F07AFFED
:1016200002F0EEFF204602F075FF02F0E9FF02F043
:10163000A5FFD12002F06EFF02F0E2FF02F03AFFB8
:10164000054602F017FF02F0BBFF284670BD10B53B
:101650000446E006010E1C2000F043F810BD10B552
:101660000446E006010E1B2000F03BF810BD70B5EB
:1016700004460025BC2C01DB012510E0622C01DBB7
:1016800002250CE02A2C01DB032508E0142C01DBE9
:10169000042504E00A2C01DB052500E00625294687
:1016A0001A2000F01EF870BD70B50446B4F57A7FBC
:1016B00001DD4FF47A74042C00DA04244FF47A70BC
:1016C00090FBF4F0401EC5B22946192000F009F83D
:1016D0000546264604EBD671C1F34F00FFF7C7FF5E
:1016E00070BD70B505460C4602F048FFD02002F0F0
:1016F00011FF02F085FF0646284602F00BFF02F0BC
:101700007FFF0646204602F005FF02F079FF0646FD
:1017100002F056FF304670BD00BFFEE72DE9F041F4
:1017200004460F4615461E46B4F5FA6F02DD4FF427
:10173000FA6006E0B4F57A7F02DA4FF47A7000E0DE
:1017400020460446B7F5FA6F02DD4FF4FA6006E072
:10175000B7F57A7F02DA4FF47A7000E03846074630
:10176000B5F5FA6F02DD4FF4FA6006E0B5F57A7F61
:1017700002DA4FF47A7000E028460546B6F5FA6FB3
:1017800002DD4FF4FA6006E0B6F57A7F02DA4FF434
:101790007A7000E03046064621464FF0804001F066
:1017A00011FA39464FF0804001F00EFA29464FF009
:1017B000804001F00BFA31464FF0804001F008FA0A
:1017C000BDE8F081704700001CB511A103C9CDE947
:1017D0000001102000F0D6FE05226946302000F0FE
:1017E000C7FF05226946102000F08CFF002406E0A8
:1017F0001DF80400A52800D003E0601CC4B2052C2D
:10180000F6DB00BF052C01D001201CBD0020FCE749
:10181000A5A5A5A5A50000001CB50121084600F05E
:10182000E3FC0121042000F0DFFC102000900120E7
:101830008DF8040000208DF8060003208DF80500C7
:1018400001208DF8070069461948FFF79DFA10201E
:10185000009001208DF8040000208DF80600032080
:101860008DF8050001208DF8070069461148FFF743
:101870008BFA2020009000208DF8040002208DF8C3
:10188000070003208DF8050069460A48FFF77CFA37
:1018900010210748FFF7EFFA00F0AAFE10210548D3
:1018A000FFF7E6FA10210248FFF7E5FA1CBD000039
:1018B000000002400008024010B510211248FFF756
:1018C000D7FA052211492A2000F052FF01212120D8
:1018D00000F06EFF0121222000F06AFF2821252060
:1018E00000F066FF2021312000F062FF0F2126204A
:1018F00000F05EFF0F21202000F05AFF1021024867
:10190000FFF7B9FA10BD0000000802402D6500087D
:1019100070B50446102000F035FE072000F012FFDD
:1019200005462946272000F043FF05F0400050B14E
:1019300020222146612000F0E5FEFF21E22000F098
:1019400037FF002070BD0120FCE7000070B50021CA
:1019500000230F22C4781CB3174C246804F4E064FD
:10196000C4F5E064C4F30721C1F10404E3B20A4101
:1019700044789C40E1B28478144021430C07210E46
:101980000E4C05786155047804F01F050124AC4025
:1019900005786D11AD0005F1E025C5F8004109E0BD
:1019A000047804F01F050124AC40054D067876113B
:1019B00045F8264070BD00000CED00E000E400E0BA
:1019C00080E100E002490143024A116070470000D3
:1019D0000000FA050CED00E000B58BB001210846CF
:1019E00000F012FC0121084600F0FEFB0F200990D8
:1019F00002208DF8280000208DF82A0003208DF8A1
:101A0000290001208DF82B0009A92B48FFF7BCF90C
:101A1000012200212848FFF7FFF90122114626483C
:101A2000FFF7FAF9012202212348FFF7F5F9012215
:101A300003212148FFF7F0F94FF0804000F096FFB6
:101A40000020ADF82000ADF81A0040F69F70079016
:101A50006320ADF8180000208DF8220006A94FF091
:101A6000804001F0B7F86020ADF804000020ADF828
:101A700010000120ADF806000020039001A94FF0EE
:101A8000804000F079FF01A94FF0804000F0B2FFE4
:101A900001A94FF0804000F0FFFF01A94FF0804006
:101AA00001F04AF801A801F083F80121880700F04D
:101AB00051FF0BB000BD000000000240B0EE401A24
:101AC000F0EE601A31EE612AF0EE420A204890ED05
:101AD000002A2048D0ED002A02EEA02A1C4880ED02
:101AE000002A90ED002AF3EE042AB4EEE22AF1EE89
:101AF00010FA02DDB3EE042A0FE0154890ED002A3B
:101B0000FBEE042AB4EEE22AF1EE10FA02D2BBEEAA
:101B1000042A02E00E4890ED002A0D4880ED002ACC
:101B200090ED002A0C48D0ED002A02EEA02A0B48C6
:101B3000D0ED002A70EEE22A094890ED003AB0EEAE
:101B4000420A03EE220A0548C0ED000A7047000071
:101B50004C010020100100200C0100204801002051
:101B60001401002000B52DED108B93B0B0EE40BAFB
:101B7000B0EE60AAF0EE41AAF0EE618AB0EE429AB1
:101B8000F0EE629AFE4890ED000A20EE000A8DED1C
:101B9000120A90ED000AFB48D0ED000A20EE200A60
:101BA0008DED110AF64890ED000AF748D0ED000AD5
:101BB00020EE200A8DED100AF24890ED000A20EE8A
:101BC000000AF0EE40EA90ED000AF048D0ED000A7D
:101BD00020EE200A8DED0F0AEB4890ED000A20EE72
:101BE000000AB0EE40FA90ED000AE848D0ED000A95
:101BF00020EE200A8DED0E0A90ED000A20EE000A7C
:101C00008DED0D0AE24890ED000A20EE000A8DED00
:101C10000C0AE04890ED000A20EE000A8DED0B0A58
:101C2000DD4890ED000A20EE000A8DED0A0ADB483F
:101C300090ED000A20EE000AF0EE40FAD54890ED53
:101C4000000AD548D0ED000A20EE200A8DED090AE1
:101C5000CF4890ED000AD148D0ED000A20EE200ACE
:101C60008DED080ACB4890ED000AB1EE400A20EE57
:101C7000280AC948D0ED000A00EEC90AC748D0EDCD
:101C8000000A00EEE90AC248D0ED000A9FEDC41A2E
:101C900040EE010AC0ED000A90ED000A20EE280A8D
:101CA000BD48D0ED000A00EEA90ABC48D0ED000AFC
:101CB00000EEC90AB748D0ED000A9FEDB91A40EE10
:101CC000010AC0ED000AB24890ED000A20EE090AB0
:101CD000B048D0ED000A00EEE90AB048D0ED000AA5
:101CE00000EEA80AAC48D0ED000A9FEDAD1A40EE18
:101CF000010AC0ED000AA64890ED000A20EE290A6C
:101D0000A448D0ED000A00EE890AA348D0ED000AED
:101D100000EEE80AA148D0ED000A9FEDA11A40EEBE
:101D2000010AC0ED000A9DED0C0ADDED0B0A70EE14
:101D3000200A9DED0A0A30EE800A30EE2F0A10EEDE
:101D4000101A0846FEF738FBCDE904019DED040B9F
:101D500001F0C6FD8DED060B9DED060B51EC100B51
:101D6000FEF73DFB08EE100A894890ED000AC0EE30
:101D7000080AC0ED000A874890ED000AC0EE080A84
:101D8000C0ED000A844890ED000AC0EE080AC0EDDC
:101D9000000A824890ED000AC0EE080AC0ED000A71
:101DA0002BEE0A0A20EE2A0AB5EEC00AF1EE10FA6E
:101DB00003D113B0BDEC108B00BD2BEE0B0A0AEE65
:101DC0000A0A0AEEAA0A10EE101A0846FEF7F4FAFA
:101DD000CDE904019DED040B01F082FD8DED060BB4
:101DE0009DED060B51EC100BFEF7F9FA08EE100A08
:101DF0008BEE080AB0EE40BA8AEE080AB0EE40AAAE
:101E00008AEE880AF0EE40AA9DED0F0ADDED100A79
:101E100030EE600AF0EE000A20EE20DA9DED110AA5
:101E2000DDED0E0A30EE200AF0EE000A60EE20DA58
:101E30009DED120A30EE6E0A70EE4F0A9DED0D0A0E
:101E400030EE80EA2AEE0E0AF0EE40BA4AEEEDBA23
:101E50002AEE8D0AB0EE40CA0BEE4ECA2BEE2D0ACA
:101E6000F0EE40CA4AEE4DCA4E4890ED000ADFED52
:101E70004E0A0BEEA00A80ED000A4C4890ED000AD5
:101E8000DFED490A0CEE200A80ED000A484890ED8B
:101E9000000ADFED450A0CEEA00A80ED000AF0EE24
:101EA000000AB0EE680A00EEAB0A3E48D0ED000A28
:101EB00030EE200AF0EE408AF0EE000AB0EE490A59
:101EC00000EE8C0A3948D0ED000A30EE200AB0EE60
:101ED000409AF0EE000AB0EE690A00EEAC0A34480F
:101EE000D0ED000A30EE200AF0EE409A254890ED41
:101EF000000AB1EE400A20EE280A2348D0ED000A7D
:101F000000EEC90A2148D0ED000A00EEE90A1C489B
:101F1000D0ED000A9FED221A40EE010AC0ED000A42
:101F200090ED000A20EE280A1748D0ED000A00EED6
:101F3000A90A1648D0ED000A00EEC90A1148D0EDF2
:101F4000000A9FED171A40EE010AC0ED000A0C4886
:101F500090ED000A20EE090A0A48D0ED000A00EED2
:101F6000E90A0A48D0ED000A00EEA80A0648D0EDBA
:101F7000000A9FED0B1A40EE010AC0ED000A19E0BD
:101F8000BC000020C0000020C4000020C8000020C9
:101F9000F0000020F4000020F8000020FC000020E9
:101FA000A69B443BE40000200AD7A33BE8000020A6
:101FB000EC000020834890ED000A20EE290A8248B8
:101FC000D0ED000A00EE890A8048D0ED000A00EE4C
:101FD000E80A7F48D0ED000A1FED0F1A40EE010A13
:101FE000C0ED000A9DED120A30EE2E0A70EE0F0AC7
:101FF0009DED0D0A30EE800A10EE101A0846FEF72D
:10200000DBF9CDE904019DED040B01F069FC8DEDD8
:10201000060B9DED060B51EC100BFEF7E0F908EEF8
:10202000100A684890ED000AC0EE080AC0ED000AE8
:10203000654890ED000AC0EE080AC0ED000A63484A
:1020400090ED000AC0EE080AC0ED000A604890ED6D
:10205000000AC0EE080AC0ED000AB8EE000A2EEE33
:10206000800AF0EE000A00EECF0AF7EE000A30EE2A
:10207000200A10EE101A0846FEF79EF9CDE902017B
:102080009DED0E0AF0EE000A60EE200A9DED110AA9
:10209000B0EE001A41EE000A10EE901A0846FEF764
:1020A0008BF9CDE900019DED021B9DED000B01F0C8
:1020B00017FB8DED040B9FED470B53EC102B9DEDA3
:1020C000040B51EC100BFEF705F9CDE906019DED6F
:1020D000060B51EC100BFEF782F9404908609DEDAC
:1020E0000F0AF8EE000A20EE200ADDED100AB0EE2D
:1020F000001A01EE200A10EE101A0846FEF75CF9ED
:10210000CDE902019DED020B00F0CEFF8DED040B39
:102110009FED300B53EC102B9DED040B51EC100B8D
:10212000FEF7D8F8CDE906019DED060B51EC100B3A
:10213000FEF755F92A4908609DED0A0AF8EE000AF3
:1021400020EE200AF0EE000A00EEEF0AF7EE000A99
:1021500030EE200A10EE101A0846FEF72DF9CDE9F0
:1021600002019DED090AF0EE000A60EE200A9DEDE5
:10217000080AB0EE001A41EE000A10EE901A084666
:10218000FEF71AF9CDE900019DED021B9DED000B54
:1021900001F0A6FA8DED040B9FED0E0B53EC102B06
:1021A0009DED040B51EC100BFEF794F8CDE9060100
:1021B0009DED060B51EC100BFEF711F90949086073
:1021C00000BFF6E5BC000020C0000020C4000020D5
:1021D000C80000200000006066A64C40B40000204B
:1021E000B0000020B800002029B1064A126802435E
:1021F000044B1A6004E0034A12688243014B1A60E0
:10220000704700003038024029B1064A1268024384
:10221000044B1A6004E0034A12688243014B1A60BF
:10222000704700004038024029B1064A1268024354
:10223000044B1A6004E0034A12688243014B1A609F
:102240007047000044380240F0B50021002200240D
:10225000022500260223324F3F6807F00C0121B10E
:10226000042905D0082937D105E02E4F076036E054
:102270002D4F076033E02A4F3F1F3F68C7F380565A
:10228000274F3F1F3F6807F03F036EB1264FB7FB54
:10229000F3F7DFF88CC0ACF1040CDCF800C0CCF331
:1022A000881C07FB0CF40CE01E4FB7FBF3F7DFF8BC
:1022B00070C0ACF1040CDCF800C0CCF3881C07FB48
:1022C0000CF4174F3F1F3F68C7F301477F1C7D0089
:1022D000B4FBF5F7076002E0124F076000BF00BFD4
:1022E0000F4F3F6807F0F0010909104F7A5C07684B
:1022F000D74047600A4F3F6807F4E051890A0B4F07
:102300007A5C4768D7408760054F3F6807F46041B3
:10231000490B064F7A5C4768D740C760F0BD0000A4
:10232000083802400024F40000127A001400002053
:1023300010B5FFF7C1FA4048FFF7EAFA3F490870C5
:1023400008460078002875D13B488078FF2809D1DD
:102350003948407800EE100AB8EE400A384880ED5F
:10236000000A09E034484078404200EE100AB8EE16
:10237000C00A334880ED000A2F480079FF2809D1B0
:102380002D48C07800EE100AB8EE400A2D4880EDC6
:10239000000A09E02848C078404200EE100AB8EE72
:1023A000C00A284880ED000A23488079FF2809D117
:1023B0002148407900EE100AB8EE400A224880ED2C
:1023C000000A09E01C484079404200EE100AB8EECD
:1023D000C00A1D4880ED000A1748007A1649C979DD
:1023E00040EA0120194908801348407A18490870CA
:1023F0001148807A174908700F48C07A164908704A
:102400000D48007B1549087010480088A0F5E6705B
:1024100000EE100AB8EEC00ADFED110A80EE201AB5
:102420009FED100A21EE000ABCEEC00A10EE100A61
:102430000D49088010BD0000903001209801002057
:102440009C010020A0010020A4010020A801002080
:10245000AC010020AD010020AE010020AF01002042
:1024600000804A4500004844AA0100200160002382
:10247000C380038182807047B0EE401AF0EE601A8C
:1024800031EE612AF0EE420A204890ED002A204801
:10249000D0ED002A02EEA02A1C4880ED002A90ED23
:1024A000002AF3EE042AB4EEE22AF1EE10FA02DD7D
:1024B000B3EE042A0FE0154890ED002AFBEE042A43
:1024C000B4EEE22AF1EE10FA02D2BBEE042A02E0E8
:1024D0000E4890ED002A0D4880ED002A90ED002A6C
:1024E0000C48D0ED002A02EEA02A0B48D0ED002ABD
:1024F00070EEE22A094890ED003AB0EE420A03EE8F
:10250000220A0548C0ED000A70470000540100206F
:1025100004010020000100205001002008010020DB
:102520001CB50020009001904FF400700090002036
:102530008DF8040001208DF8070003208DF80500B8
:1025400069460248FEF720FC1CBD0000000802405E
:102550001CB50020009001904FF400700090012005
:102560008DF804008DF8060000208DF80700032088
:102570008DF8050069460248FEF706FC1CBD000008
:1025800000080240054909884FF6C7721140034A06
:1025900011801146098801431180704700300140C5
:1025A00010B5044600BF02210A4800F07FF8002859
:1025B000F9D02146074800F085F800BF0121054801
:1025C00000F074F80028F9D0024800F078F8C0B2A2
:1025D00010BD00000030014021B1028842F04002ED
:1025E000028004E002884FF6BF731A4002807047F1
:1025F00000B585B000F030F800211648FFF7ECFF79
:1026000001210803FFF710FE0020ADF800004FF491
:102610008270ADF802000020ADF80400ADF80600AD
:10262000ADF808004FF40070ADF80A003820ADF89E
:102630000C000020ADF80E000720ADF81000694630
:10264000044800F041F801210248FFF7C5FF05B03A
:1026500000BD0000003001401CB501210846FFF715
:10266000C3FDE020009002208DF8040000208DF8CA
:10267000060003208DF8050001208DF8070069464B
:102680000948FEF781FB052211460748FEF7C4FB07
:10269000052206210448FEF7BFFB05220721024858
:1026A000FEF7BAFB1CBD00000000024002460020FD
:1026B00013890B400BB1012000E000207047014658
:1026C000888970478181704710B50022028802F422
:1026D00041520B884C8823438C882343CC88234366
:1026E0000C8923434C8923438C892343CC8923437E
:1026F0001A430280838B4FF2FF74234083830B8A3B
:10270000038210BD2DE9F04107460D461646102103
:102710000B48FEF7ADFB3846FFF742FF804600242A
:1027200005E0FF20FFF73CFF2855601CC4B2B4420F
:10273000F7DB10210248FEF79EFB4046BDE8F08122
:102740000000024070B5044610210848FEF790FBD7
:102750002046FFF725FFFF20FFF722FF0546102147
:102760000248FEF788FB284670BD000000000240CA
:102770002DE9F04107460C46154610210B48FEF79F
:1027800077FB3846FFF70CFF8046002605E014F87B
:10279000010BFFF705FF701CC6B2AE42F7DB10213C
:1027A0000248FEF768FB4046BDE8F08100000240A9
:1027B00070B505460C4610210748FEF759FB284620
:1027C000FFF7EEFE06462046FFF7EAFE102102481C
:1027D000FEF751FB304670BD0000024000BFFEE72F
:1027E0002248006840F08050204908602048006876
:1027F00040F440401E4908601C48383800681B49B6
:10280000383908600846006808600846006840F4E7
:10281000805008601748091F0860081F006840F0D2
:102820008070091F086000BF10484038006800F041
:1028300000700028F8D040F202700F4908600B4881
:102840003838006820F00300084938390860084625
:10285000006840F00200086000BF04483838006893
:1028600000F00C000828F8D1704700004038024002
:102870000070004010640107003C0240042808D1A9
:102880004FF0E021096941F004014FF0E0221161AD
:1028900007E04FF0E021096921F004014FF0E02248
:1028A0001161704710B503F0E5FB012801D003F07A
:1028B000A7F810BD70B504460420FFF7DFFF0A48F3
:1028C000046025464FF47A7045434FF0E0200069DC
:1028D00040F002004FF0E0210861084645610069C0
:1028E00040F00100086170BD2400002010B51548BB
:1028F000006840F47000134908601348006840F015
:1029000001001149086000200F49083108600E4895
:1029100000680E4908400C4908600D48091D086010
:10292000081F006820F48020091F08600020064965
:102930000C310860FFF754FF4FF000600149803907
:10294000086010BD88ED00E000380240FFFFF6FE91
:102950001030002421B1028842F00102028004E01C
:1029600002884FF6FE731A400280704701894FF6C5
:10297000F87211400181704770B5002400220023D5
:10298000058C4FF6FE7635400584028C8388048BD7
:102990004FF68F752C40B51E2C400D882C43751EAC
:1029A0002A408D892A434D882A43104DA84202D0DF
:1029B0000F4DA84213D14FF6F7752A40CD892A430F
:1029C0004FF6FB752A408D882A434FF6FF652B4052
:1029D0004FF6FF552B400D8A2B434D8A2B438380A6
:1029E00004838D684563028470BD000000000140CF
:1029F0000004014070B5002400220023058C4FF62E
:102A0000EF7635400584028C8388048B48F6FF7589
:102A10002C404FF6FF452C400D884FF6FF7606EA16
:102A200005252C434FF6DF752A408D8906EA0515EA
:102A30002A434D8806EA05152A43154DA84202D0BF
:102A4000144DA8421DD14FF67F752A40CD894FF60F
:102A5000FF7606EA05152A434FF6BF752A408D8892
:102A600006EA05152A434FF6FF352B404FF2FF7556
:102A70002B400D8A06EA85052B434D8A06EA85051B
:102A80002B43838004838D688563028470BD0000BE
:102A9000000001400004014070B500240022002322
:102AA000058C4FF6FF6635400584028C8388848B45
:102AB0004FF68F752C404FF6FC752C400D882C433B
:102AC0004FF6FF552A408D894FF6FF7606EA052519
:102AD0002A434D8806EA05252A43154DA84202D00F
:102AE000144DA8421DD14FF2FF752A40CD894FF6F3
:102AF000FF7606EA05252A434FF6FF352A408D88E2
:102B000006EA05252A434EF6FF752B404DF6FF7564
:102B10002B400D8A06EA05152B434D8A06EA05155A
:102B20002B43838084838D68C563028470BD00005D
:102B3000000001400004014070B500220023002481
:102B4000058C4EF6FF7635400584038C8488828B95
:102B500048F6FF752A404FF6FF452A400D884FF68C
:102B6000FF7606EA05252A434DF6FF752B408D8931
:102B700006EA05352B434D8806EA05352B430A4DF9
:102B8000A84202D0094DA84208D14BF6FF752C404F
:102B90000D8A4FF6FF7606EA85152C4384808283E2
:102BA0008D680564038470BD00000140000401408D
:102BB000002101804180818081608181C181018209
:102BC000418270474163704781637047C1637047BA
:102BD0000164704700220288184B98420ED0184BAF
:102BE00098420BD0B0F1804F08D0164B984205D0D8
:102BF000154B984202D0154B984204D14FF68F7373
:102C00001A404B881A43124B984207D0114B9842F6
:102C100004D04FF6FF431A400B891A4302804B68D9
:102C2000C3620B880385054B984202D0044B98423F
:102C300001D18B7A03860123838270470000014013
:102C4000000401400004004000080040000C004067
:102C5000001000400014004010B540F225511D48FE
:102C600000F034F910B31B4800F0EAF9C4B21A4876
:102C7000008800F40040C8B91748008800F480407C
:102C800060B10A2C03D000201349088020E01248CC
:102C9000008840F400401049088019E00D2C06D14E
:102CA0000D48008840F480400B49088010E00A4835
:102CB0000088C0F30D0009490C5407480088401CE7
:102CC0000549088008460088C72801DD00200880E3
:102CD00010BD0000001001409C000020002F0120CA
:102CE00010B588B0044601210846FFF77DFA01219E
:102CF0001020FFF799FA072209212548FEF78CF8E2
:102D000007220A212248FEF787F84FF4C060069098
:102D100002208DF81D008DF81C0000208DF81E008B
:102D200001208DF81F0006A91948FEF72DF802941E
:102D30000020ADF80C00ADF80E00ADF81000ADF8B5
:102D400014000C20ADF8120002A9124800F00EF990
:102D50000121104800F0A1F840210E4800F094F83D
:102D6000012240F225510B4800F0DAF825208DF8B9
:102D7000040002208DF8050000208DF806000120D7
:102D80008DF8070001A8FEF7E1FD08B010BD0000B6
:102D9000000002400010014008B540F225510848EB
:102DA00000F094F801280AD1054800F049F9C0B2B2
:102DB000009001226946034802F05DFA00BF08BD99
:102DC000001401404830012000B587B001210420E3
:102DD000FFF70AFA01212020FFF726FA0822062130
:102DE0002548FEF719F8082207212348FEF714F8B2
:102DF000C020059002208DF818008DF819000020E1
:102E00008DF81A0001208DF81B0005A91A48FDF75E
:102E1000BBFF47208DF8000003208DF80100002043
:102E20008DF8020001208DF803006846FEF78EFD44
:102E30004FF4E13001900020ADF80800ADF80A0031
:102E4000ADF80C00ADF810000C20ADF80E0001A993
:102E50000A4800F08BF8012240F22551074800F0A3
:102E60005FF80121054800F018F880220449054860
:102E7000FFF7FCFA07B000BD000802400014014053
:102E8000C82F01204830012001F40072B2F5007F04
:102E900000D100BFCA430280704721B1828942F449
:102EA0000052828104E082894DF6FF731A408281CC
:102EB000704702460020B1F5007F00D100BF1388A3
:102EC0000B400BB1012000E00020704770B50246B6
:102ED000002400230025002040F66A16B14200D1EC
:102EE00000BFC1F3421501F01F03012606FA03F3E8
:102EF000012D02D19689334006E0022D02D1168AB7
:102F0000334001E0968A33400C12012606FA04F49D
:102F10001688344013B10CB1012000E0002070BDD0
:102F2000F0B50346002400260025002040F66A176D
:102F3000B94200D100BF1846C1F3421401F01F0688
:102F4000012707FA06F5012C01D10C3004E0022C10
:102F500001D1103000E014301AB107682F43076028
:102F600002E00768AF430760F0BD00002DE9FF47AE
:102F700005460E460024A14600BFA046B08900B118
:102F800000BF2C8A24F44054F08804432C82AC897E
:102F900041F20C608443B088318908437189084349
:102FA0000443AC81AC8A24F44074B0890443AC82FD
:102FB0006846FFF749F92048854202D01F488542FC
:102FC00002D1DDF80C9001E0DDF80890A88900F44A
:102FD000004040B109EBC90000EB0910316849001D
:102FE000B0FBF1F707E009EBC90000EB091031680D
:102FF0008900B0FBF1F76420B7FBF0F00401200971
:10300000642101FB1078A88900F4004040B132200F
:1030100000EBC800B0FBF1F000F00700044308E04B
:10302000322000EB08106421B0FBF1F000F00F003B
:1030300004432C81BDE8FF870010014000140140CB
:1030400001468888C0F308007047C1F308028280F7
:10305000704700BFFEE700000FB4054B10B503A991
:10306000044A029800F004FE10BC5DF814FB000056
:1030700001440008C801002003B4019841000098F1
:1030800050EAC12018BF04204A0D18BF40F00100CB
:1030900040F2FF72B2EB515F08BF40F0020001281E
:1030A00008BF052002B0704770B5C1482DED020B76
:1030B0002DED0E8B82B0119D25F000449FEDBEDBFF
:1030C0009FEDBFEB84423EDBA4F140511098A1F18B
:1030D0007F6108430FD0BC48844202DC28D110989D
:1030E00030B39DED100B02B0BDEC0E8B02B0BDE80D
:1030F000704000F0AEBC9DED100B53EC1D2B51EC5D
:10310000100BFDF7E7F89DED100B41EC180B53EC9D
:103110001E2B51EC100BFDF7DDF853EC182BFDF7CF
:1031200055FA41EC100B02B0BDEC0E8B02B070BD35
:10313000012000F0D5FC02B0BDEC0E8B02B0BDE862
:10314000704000F09DBCA1489FEDA18B844256DAEF
:103150009DED100BB4F1795F0ADA51EC100BFFF71B
:103160008BFF042808BF00F09BFC9DED100BDAE7F5
:1031700053EC102B51EC100BFDF7ACF841EC190B94
:1031800095480621B0EE490AF0EE690A784400F04D
:10319000E4FB53EC192B51EC100BFDF79BF841ECC1
:1031A0001A0B8E48B0EE490AF0EE690A0421784401
:1031B00000F0D3FB53EC192B51EC100BFDF78AF800
:1031C00053EC182BFDF702FA41EC100B51EC1A0BE3
:1031D00053EC102BFDF7A1FACDE900019DED000B9A
:1031E00053EC102B9DED100B51EC100BFDF772F80A
:1031F0009DED101B53EC112BFDF7E8F9D2E09DED8E
:10320000100B51EC100B01F0EFF853EC182BFDF7FD
:1032100081FA9FED730BCDE9000153EC102B9DED6E
:10322000000B51EC100BFDF755F841EC190B6E48F3
:103230000621B0EE490AF0EE690A784400F08DFBF1
:1032400053EC192B51EC100BFDF744F841EC1B0B20
:103250006648B0EE490AF0EE690A0421784400F0AD
:103260007CFB53EC192B51EC100BFDF733F853ECAE
:10327000182BFDF7ABF941EC1C0B51EC190B02F0CC
:103280000DF841EC180B5A489FED5BABA04222DCD5
:1032900053EC1C2B51EC1B0BFDF73FFACDE9000161
:1032A0009DED000B51EC180B53EC102BFDF712F8B1
:1032B00053EC182BFDF78AF953EC1A2BFDF70AF89B
:1032C00053EC1D2BFDF723FA53EC1E2BFDF722FACE
:1032D00041EC100B5FE08DED008B002000909DED28
:1032E000000B51EC180B53EC102BFDF76FF99DED13
:1032F000000B41EC1E0B53EC102B51EC100BFCF7A8
:10330000E9FF53EC192BFDF705FA53EC1E2BFDF7E3
:1033100004FA41EC190B53EC1C2B51EC1B0BFDF781
:10332000FCF941EC1B0B53EC1A2B51EC190BFCF77D
:10333000D1FF53EC1D2BFDF7EDF941EC190B53ECCC
:103340001A2B51EC180BFCF7C5FF53EC1B2BFCF7A9
:10335000C1FF53EC192BFDF7DAF99DED000B41ECA1
:10336000180B53EC1A2B51EC100BFCF7B3FF9FED2D
:10337000249B53EC192BFDF7CDF941EC100B51ECCC
:10338000180B53EC102BFDF7C2F953EC192BFDF77A
:10339000C1F941EC100B002D3FF7C5AE51EC100BFD
:1033A00081F0004141EC100BBDE600000000000080
:1033B0000000F03F00000000075C143326A6913C9B
:1033C000182D4454FB21F93F0000F07F0000E03F3E
:1033D000000000000000F03FC0330000CE330000CA
:1033E000000000000000E03F123300002033000026
:1033F0003333EF3F000000000000000000000040F9
:10340000182D4454FB21E93F70B59B482DED020B6C
:103410002DED068B079D25F00044A04218DC97484F
:10342000844202DC0AD1069840B19DED060BBDEC4A
:10343000068B02B0BDE8704000F00BBB002DCCBF86
:103440009FED8F0B9FED900BBDEC068B02B070BD16
:103450008F48A04215DD8F48A042D8BF4FF0FF34FF
:1034600058DD9DED060B51EC100BFFF705FE04280F
:1034700008BF00F015FB9DED060BBDEC068B02B0FE
:1034800070BD9DED060B51EC100B00F0ADFFCDE9CA
:10349000060181489FED828BA0423CDD8248A0421C
:1034A0001FDD00249FED82AB9DED060B53EC1A2B24
:1034B00051EC100BFDF78AF89DED060B41EC190B52
:1034C00053EC1A2B51EC100BFCF704FF53EC182BA8
:1034D000FDF71DF953EC192BFDF71FF9CDE9060196
:1034E00049E09DED060B012453EC182B51EC100B19
:1034F000FDF76CF89DED060B41EC190B53EC182B06
:1035000051EC100BFDF703F953EC192BFDF705F9FE
:10351000CDE906012FE06848A0421FDD02249FED9F
:10352000689B9DED060B53EC192B51EC100BFCF72F
:10353000D1FE53EC182BFDF749F89DED060B41EC3D
:10354000180B53EC192B51EC100BFDF7E0F853EC72
:10355000182BFDF7E2F8CDE906010CE09DED060B16
:10356000032453EC102B9FED580B51EC100BFDF77F
:10357000D4F8CDE906019DED060B53EC102B51EC70
:10358000100BFCF7A7FE41EC180B53EC182BFCF7C3
:10359000A1FE41EC190B4E480621B0EE490AF0EEAF
:1035A000690A784400F0D9F953EC182B51EC100B50
:1035B000FCF790FE41EC180B4648B0EE490AF0EEDD
:1035C000690A0521784400F0C8F953EC192B51EC35
:1035D000100BFCF77FFE41EC100B51EC180B53EC79
:1035E000102B002C0EDAFCF7F1FF9DED061B53ECBF
:1035F000112BFCF76FFE9DED061B53EC112BFDF715
:1036000089F835E0FCF7E2FF9DED061B53EC112B2A
:10361000FCF760FE41EC100B2F48784400EBC4002F
:1036200090ED001B51EC100B53EC112BFDF76FF8D4
:103630009DED061B53EC112BFDF769F841EC100BC7
:103640002648784400EBC40090ED001B51EC100BB1
:1036500053EC112BFDF75EF841EC100B002DA2BFCF
:10366000BDEC068B02B070BD51EC100B81F0004137
:1036700041EC100B01E70000000010440000F07F57
:10368000182D4454FB21F93F182D4454FB21F9BF58
:103690000000DC3F0000203E0000F33F000000007F
:1036A000000000000000F03F0000E63F00000000C6
:1036B0000000000000000040008003400000000007
:1036C000000000000000F83F000000000000F0BF14
:1036D0006230000018300000A22F00005A2F0000B6
:1036E00070B56F4E2DED040B2DED048B82B0DDF81F
:1036F00024C0DDE907235C422CF000411C4341EA71
:10370000D474069D22F00040B44205D86C422C438C
:1037100040EAD474B4420BD99DED081B9DED060B15
:1037200002B0BDEC048B04B0BDE8704000F09BB962
:10373000ACF14054A4F17F641C430BD0022404EA92
:10374000AC7444EAD27405439FED578B9FED582B20
:1037500007D015E09DED060B51EC100B00F00BFEB1
:1037600042E0002C11BF012C9DED060B02B0BDEC18
:10377000048B04BF04B070BD022C38D0032C3BD0A6
:103780000B439FED4D1B9FED4E0B0AD0B14218D15C
:10379000B04209D121F0804120F08040099107908A
:1037A0000FE0002A15DA10E0474B7B44002C08BFDD
:1037B00093ED000B0DD0012C10D0022C17D0032C50
:1037C0001AD0B0421DD1002A03DAB0EE410AF0EE61
:1037D000610A02B0BDEC048B04B070BD93ED000B28
:1037E00051EC100B81F0004141EC100BF1E7B0EE11
:1037F000480AF0EE680AECE7B0EE420AF0EE620A20
:10380000E7E7401A00159FED329B3C28C8BF8DEDBD
:10381000000B17DCBCF1000FBCBF10F13C0F8DEDAD
:10382000009B0FDB9DED080B53EC102B9DED060B61
:1038300051EC100BFCF771FF00F0D6FD00F09BFD82
:10384000CDE90001B4B1012C10D0022C9FED220B68
:1038500053EC102B9DED000B51EC100B19D0FCF725
:1038600056FF53EC182BFCF752FFBDE7019880F090
:10387000004001909DED000B53EC192B51EC100B07
:10388000FDF724F804BF022000F02AF99DED000B9B
:103890009FE7FCF73CFF53EC182BFCF73BFFA3E73B
:1038A0000000F07F00000000182D4454FB21094067
:1038B000182D4454FB2109C0182D4454FB21F9BF95
:1038C000182D4454FB21F93F8A2E0000000000000F
:1038D0000000000000000000075C143326A6A13C95
:1038E00000B52DED048BB0EE409AF0EE609A83B0F7
:1038F00051EC190BFCF780FF41EC180B18EE100A85
:1039000018EE901A8DED008B002818BF0120084397
:1039100020F00040C0F17F6000F1E040C00F14D003
:1039200019EE101A19EE900A8DED009B002918BFB0
:103930000121084320F00040C0F17F6000F1E04029
:10394000C00F04BF012000F0CBF8B0EE480A03B06E
:10395000F0EE680ABDEC048B00BD70B504462DED99
:10396000028B4D1E00EBC500B0EE408AF0EE608A7F
:1039700090ED000B35F0060017D053EC182B51ECEE
:10398000100BFCF7A7FC41EC100B6D1E04EBC500FF
:1039900090ED001B51EC100B53EC112BFCF716FEB5
:1039A00041EC100B35F00600E7D1022D36D0042D86
:1039B0001CD0062D1CBFBDEC028B70BD53EC182B28
:1039C00051EC100BFCF786FC94ED0A1B53EC112B09
:1039D000FCF7FCFD53EC182BFCF77CFC94ED081B6A
:1039E00053EC112BFCF7F2FD41EC100B53EC182BB0
:1039F00051EC100BFCF76EFC94ED061B53EC112BF5
:103A0000FCF7E4FD53EC182BFCF764FC94ED040B7D
:103A100053EC102BFCF7DAFD41EC100B53EC182B98
:103A200051EC100BFCF756FC94ED021B53EC112BE0
:103A3000FCF7CCFD53EC182BFCF74CFC94ED001B71
:103A400053EC112BFCF7C2FDBDEC028B41EC100BCB
:103A500070BD10B553EC102B51EC100BFCF7B6FDFC
:103A600041EC100B10BD10B553EC112B51EC100BA9
:103A7000FCF7ACFD41EC100B10BD00000000000095
:103A80009FED050B10B553EC102B51EC100BFCF710
:103A900044FE41EC100B10BD0000000000000000CF
:103AA0009FED050B10B553EC102B51EC100BFCF7F0
:103AB00011FC41EC100B10BD0000000000000010D4
:103AC00002E008C8121F08C1002AFAD170477047E7
:103AD000002001E001C1121F002AFBD17047000045
:103AE0000149086070470000CC0100202DE9FF5F0C
:103AF00082B00021DDE90430020DDDF840B003435F
:103B000018D044F61050A2F2FF3242431514119817
:103B100001281FD0A5EB0B00401C5FEA000A4FF004
:103B200000064E4FDFF83891B046504615D5CAF121
:103B3000000413E0119801244AA3012801D16FEA7F
:103B40000B010298119AC0E90031C0E9024206B0A7
:103B5000BDE8F09FCBF10000DFE704460021404ABA
:103B6000491842EB0450CDE9001012E0E00707D0FD
:103B700032463B4640464946FCF7ACFB8046894608
:103B800032463B4610461946FCF7A4FB06460F4654
:103B90006410002CEAD1DDE90401DDE90023BAF16B
:103BA000000F06DAFCF796FB42464B46FCF792FB09
:103BB00005E0FCF7B2FD42464B46FCF7AEFD04467D
:103BC0000E460022284BFCF799FE03D84FF0FF3039
:103BD000014607E00022254B20463146FCF7F6FC63
:103BE000FCF75BFE102409E0002C0ADB0A2200230C
:103BF000FCF727FC039B30321A55641E50EA010281
:103C0000F2D1641C039AC4F111031444119A012ADD
:103C100003D0012208430DD10AE0084304D000205C
:103C20004FF0110B119072E7A3EB0B056D1E0DE029
:103C30005B4504DD4FF0000205F1010504E003DA05
:103C40004FF00002A5F10105002AECD0029811996D
:103C5000C0E90231C0E9004579E7000000001440E6
:103C60000000F03F300000000000F0430000E03FA3
:103C70002DE9FF4F95B09A46884606460025EEE1AD
:103C8000252877D100242746F94A0121039400E032
:103C9000044316F8013F203B01FA03F01042F7D12C
:103CA00030782A2811D06FF02F033078A0F130023D
:103CB000092A16D8039A44F0020402EB820203EBAD
:103CC00042021044761C0390EFE758F8042B03924D
:103CD000002A03DA504244F40054039044F00204F2
:103CE000761C30782E2816D116F8010F44F0040403
:103CF0002A280DD06FF02F023078A0F13003092B65
:103D000009D807EB870302EB4303C718761CF3E7D8
:103D100058F8047B761C30786C280FD006DC4C28D1
:103D200017D068280DD06A2814D104E0742810D068
:103D30007A280FD10DE044F400140AE044F4801412
:103D400001E044F440147278824202D104F58014F8
:103D5000761C761C307866280BD013DC582877D078
:103D600009DC002875D04528F6D04628F4D047282D
:103D70001AD193E118E0632835D0642879D06528FA
:103D800012D18BE1702873D008DC6728F1D0692844
:103D90006FD06E280DD06F2806D1ACE073282CD0E0
:103DA000752874D0782853D05246179990476D1CC7
:103DB00054E1C4F30250022809D003280DD0D8F8EA
:103DC000001004280DD00D6008F1040846E1D8F871
:103DD0000010EA17C1E90052F6E7D8F800100D808C
:103DE000F2E70D70F0E718F8041B8DF800100020C2
:103DF0008DF80100EB46012003E058F804BB4FF0BA
:103E0000FF3061074FF0000102D40DE009F101011C
:103E10008946B9420FDA8145F8DB1BF80910002901
:103E2000F4D108E009F1010189468142FADB1BF86F
:103E300009100029F6D103985346A0EB0907214643
:103E40003846179A00F080FA284400EB090507E08D
:103E500044E008E10DE01BF8010B5246179990472A
:103E6000B9F10109F7D2534621463846179AF2E0D4
:103E700039E00A21C4F302524FF0000B0091022AEC
:103E800006D058F8040BC117032A09D00AE023E032
:103E900008F1070020F00702F2E80201904605E071
:103EA00000B2C117042A01D140B2C117002906DAB5
:103EB0000A460021404261EB02012D2202E0220568
:103EC00004D52B228DF80420012203E0E20701D063
:103ED0002022F7E7914657E00A2100E010214FF039
:103EE000000B00910BE010214FF0000B44F0040494
:103EF0000827009103E008204FF0000B0090C4F366
:103F00000252022A05D058F8040B0021032A08D0D7
:103F100008E008F1070020F00702F2E802019046ED
:103F200003E080B2042A00D1C0B24FF0000922079A
:103F30002AD53278702A07D0DDF800C08CF0100C3A
:103F40005CEA0B0C05D00EE040228DF80420012223
:103F500008E050EA010306D030238DF804308DF8D4
:103F6000052002229146009B83F0080353EA0B03CD
:103F70000AD150EA010201D1620705D530228DF83D
:103F800004204FF001097F1E3278582A04D039A24C
:103F90000C920CAA02920BE03BA2F9E75B46009A56
:103FA000FCF74FFA0C9B9B5C029A521E0292137014
:103FB00050EA0102F2D1029804A9081A00F1200B7C
:103FC000600702D524F4803400E001275F4502DD5C
:103FD000A7EB0B0000E0002000EB0B010090039822
:103FE0004944401A0390E00306D453462146179AE9
:103FF000039800F0A9F90544002706E001A85246FD
:10400000C05D179990476D1C7F1C4F45F6DBE003A0
:104010000CD553462146179A039800F095F90544AC
:1040200004E030205246179990476D1C0099481EB5
:1040300000900029F5DC08E00298029952460078C9
:10404000491C0291179990476D1CBBF10001ABF11F
:10405000010BF1DC5BE100F065F90544761C30787A
:1040600000287FF40DAE19B02846BDE8F08F00009F
:10407000092801003031323334353637383961623E
:104080006364656600000000303132333435363702
:10409000383941424344454600000000600700D4DF
:1040A000062708F1070020F00700F0E80223804609
:1040B00003F0004C5FEA0C0001D097A009E0200556
:1040C00001D596A005E0E00701D095A001E0AFF290
:1040D0004C001390307823F0004365280CD006DCA8
:1040E000452809D046281DD047287FD13BE06628C7
:1040F00018D067287AD136E00021112F01DB11207A
:1041000000E0781CCDE9000104A90CA8FFF7EEFC43
:10411000DDE90D010C9A4FF0000B07F10109109237
:1041200000914EE04FF000400097CDE9011004A946
:104130000CA8FFF7DBFCDDE90D020C9B0F994FF09B
:10414000000B91461093009211B9791C00EB010904
:10415000B7EB090003D4C0F1FF3B07F10109A9EB5C
:104160000700019042E0012F00DA01270021112F02
:1041700001DD112000E03846CDE9000104A90CA8BA
:10418000FFF7B4FCDDE90D010C9A00914FF0000B34
:10419000B946109221070FD4009A4A4503DA914696
:1041A00001E0A9F10109B9F1010F05DD109AA9F1AA
:1041B0000101515C3029F4D0B84202DA10F1040F49
:1041C00003DA0121CDE9011010E0002803DC83446B
:1041D000A9EB000102E0411C494500DD8946A0EB46
:1041E0000B00401C01904FF000400290200705D4C6
:1041F0000198484502DB4FF0FF30019000208DF818
:104200004B0002980DF14B07B0F1004F25D0022072
:104210000C902B200D90029800280CDA404202905E
:104220002D200D9007E00A210298FCF7F4F83031B8
:10423000029007F8011D0C99481E0C900029F2DC31
:1042400002980028EFD1791E0D980870307800F0A0
:10425000200040F0450007F8020D11A8C01BC01D4A
:1042600002901398007800B1012000EB0901019839
:1042700001EBE071029801440398401A401E03903C
:10428000E00306D453462146179A039800F05CF8E1
:1042900005441398007818B15246179990476D1C41
:1042A000E00323D553462146179A039800F04CF8B3
:1042B00005441BE0BBF1000F07DB0098584504DD07
:1042C0001098179910F80B0001E01799302052460A
:1042D000904701980BF1010B401E05F1010501907B
:1042E00004D12E205246179990476D1CB9F1000158
:1042F000A9F10109DEDC05E017F8010B5246179918
:1043000090476D1C0299481E02900029F4DC534628
:104310002146179A03989EE62D0000002B0000000E
:10432000200000002DE9F041044600251E461746F6
:10433000880404D405E039462020B0476D1C641E73
:10434000F9D52846BDE8F0812DE9F0410446002565
:104350001E469046C80301D5302700E02027880478
:1043600004D505E041463846B0476D1C641EF9D5BA
:104370002846BDE8F08110B541EC100BFFF744F87A
:1043800051EC100B10BD30B50446002504E04FF48D
:104390007A7000F005F86D1CA542F8D330BD00001E
:1043A00070B5034600224FF0E02675690D4E366861
:1043B00003FB06F44FF0E026B16910E04FF0E02671
:1043C000B06988420BD0884202D20E1A324402E011
:1043D0002E1A0E4432440146A24200D300E0EDE71B
:1043E00000BF70BD2400002082B0CDE9000121F0A3
:1043F000004001909DED000B02B051EC100B704796
:1044000070B504460D46E1B20548FEF71EFE00BF3A
:1044100080210348FEF74DFD0028F9D0204670BDED
:104420000010014010B5FEF793F84FF480710B486F
:10443000FCF71EFD4FF400710948FCF719FD00F070
:1044400011F84FF480710548FCF715FD00F00AF8EB
:104450004FF480710148FCF70BFD10BD00000240D5
:1044600000080240002001E0411CC8B21428FBDB18
:104470007047000010B5FEF76BF84FF480710B48E1
:10448000FCF7F6FC4FF400710948FCF7F4FCFFF769
:10449000E9FF4FF480710548FCF7EDFCFFF7E2FF00
:1044A0004FF480710148FCF7E3FC10BD00000240AE
:1044B0000008024070B5FEF733F80024002519E02B
:1044C0004FF480711148FCF7D3FCFFF7CBFF4FF49A
:1044D00080710E48FCF7CFFC6006040E4FF40071AB
:1044E0000B48FCF7BCFC08B144F00104FFF7BAFF2D
:1044F000681CC5B2082DE3DB4FF480710348FCF75C
:10450000B7FCFEF725F8204670BD00000000024011
:104510000008024070B50446FEF71AF800251FE0B7
:104520004FF480711348FCF7A3FC04F0800028B11D
:104530004FF400711048FCF79EFC04E04FF400714A
:104540000D48FCF795FC6006040EFFF78BFF4FF457
:1045500080710848FCF78FFCFFF784FF681CC5B228
:10456000082DDDDB4FF480710248FCF781FCFFF77A
:1045700079FF70BD000002400008024010B5FDF751
:10458000E7FF4FF400710C48FCF775FC4FF48071A5
:104590000A48FCF770FCFFF765FF4FF4007106480E
:1045A000FCF766FCFFF75EFF4FF480710348FCF7F1
:1045B0005FFCFFF757FF10BD0008024000000240FB
:1045C00010B5FDF7C5FF4FF480710B48FCF750FCA8
:1045D0004FF400710948FCF74BFCFFF743FF4FF421
:1045E00080710548FCF747FC4FF400710348FCF765
:1045F00042FCFFF737FF10BD0000024000080240F8
:1046000010B500244FF400711448FCF734FCFDF79A
:1046100087FFFFF727FF4FF480711148FCF72BFC51
:10462000FFF720FF09E0601CC4B2FA2C05DDFFF79C
:10463000C7FFFDF78DFF002010BD4FF40071074844
:10464000FCF70DFC0028EED14FF480710448FCF714
:104650000FFCFDF77DFF0120EEE70000000802409F
:104660000000024002460D4890ED000AF7EE000AF5
:1046700070EEC00A00EE102AB8EEC00A60EE800AA2
:1046800000EE101AB8EEC00A90ED001A40EE010AD2
:10469000BDEEE00A10EE100A00B27047A400002040
:1046A00010B56420FEF706F94FF47A70FFF76BFE41
:1046B0004FF4E130FEF714FBFEF786FB4FF4A060E9
:1046C000FDF780F94FF48060FDF77CF9FCF760FDA1
:1046D00000BFFCF7FFFD0028FBD1FDF79DF800BFF0
:1046E000FDF772F80028FBD1FDF7E6F8FDF774F945
:1046F0000A20FFF748FEFCF791FD0520FCF768FD56
:10470000FCF786FDFCF7F4FA002010BD2DE9F0411E
:1047100005460E461C4807681C480068001D00F04E
:10472000F4FD50B91948006890F82C100120884019
:1047300017490968814316480160681C38B936B1C9
:1047400012480168091D134800F01DFE1AE07C198B
:104750000E4800684460BC4207D20C480168091D3D
:104760000D48006800F0F5FD0CE008480168091DDF
:104770000A48006800F0EDFD09480068844201D253
:1047800007480460BDE8F0813C00002028000020BC
:1047900040000020C4020020300000202C00002037
:1047A0005800002010B5044600F0FAFD24480068C7
:1047B000401C234908602348006840B92148046030
:1047C0000846006801280DD100F0DEF90AE01E4815
:1047D000006838B91B480068C06AE16A884201D89D
:1047E0001848046019480068401C184908600846C9
:1047F0000068206494F82C1001208840144909684E
:10480000084313490860E16A01EB8101114A02EB98
:104810008100211D00F0B7FD00F0ECFD0A480068A2
:1048200068B108480068C06AE16A884207D24FF060
:10483000805009490860BFF34F8FBFF36F8F10BDE1
:1048400038000020280000204400002054000020F0
:10485000400000201002002004ED00E010B500F040
:104860009FFD10480068D0B90F4800F062FD0F4866
:1048700000F05FFD0C480E4908600C480D490860C7
:1048800000220C210A2001F0D5F8064908600846EC
:10489000006820B108A10348006800F05FFE00F046
:1048A000A9FD10BD6C000020D8020020EC02002001
:1048B0006400002068000020546D72510000000068
:1048C00070B523E000F0B0FF1348006808B901207C
:1048D00000E00020054601F037FDBDB900F060FDA5
:1048E0000D48C068C468201D00F00FFD0B4800682B
:1048F000401E0A4908600A480068401E08490860CE
:1049000000F078FD204600F060F800BF0448006821
:104910000028D7D170BD0000B00200203800002070
:104920003400002070B504460D46206C70B1216C37
:10493000E0680844E0606168E068884201D320686C
:10494000E0602846226CE168FBF7A0FC70BD2DE911
:10495000F04104460F4615464FF00008A66B206C48
:1049600040B9206860BB606801F03EFC80460020D2
:10497000606025E07DB93946226CA068FBF786FCB3
:10498000216CA0680844A060D4E90110884217D3C4
:104990002068A06014E03946226CE068FBF776FCE2
:1049A000216CE068401AE0602168E068884203D228
:1049B000216C6068401AE060022D01D106B1761EBC
:1049C000701CA0634046BDE8F08110B50446206B22
:1049D00000F02EFD204600F02BFD10BD0146084AD8
:1049E000126812680AB9012200E000220A600A680F
:1049F00022B9034A1268D268106800E000207047AC
:104A00006400002030B54FF49633174800F00704D7
:104A10002CB1C01D20F00700134C041B1B1B0246C9
:104A2000124C22600024114D6C60D018083820F020
:104A300007000F4C206000240D4D2D686C600C4D5C
:104A40002D682C601146441A4C60094C24680C6097
:104A5000084D4C682C60084D4C682C604FF00044A9
:104A6000064D2C6030BD00000003002084000020B3
:104A70008C0000209400002090000020980000206E
:104A800000BFFFF71DFF064800680128F9D94FF065
:104A9000805004490860BFF34F8FBFF36F8FF0E77A
:104AA0001002002004ED00E02DE9F04106460D461D
:104AB00017469846069C0DB9246000E02760E6631F
:104AC00025640121204601F0C3F884F84C80BDE83C
:104AD000F0812DE9F05F82460F4690469B460A9E84
:104AE0000C9C4FEA8801A522206BFBF7E1FBA8F1A3
:104AF0000100216B01EB800929F0070909F007008B
:104B000008B9012000E0002050B900BF502080F318
:104B10001188BFF34F8FBFF36F8F00BF00BFFEE759
:104B2000002507E0795D04F134004155785D00B956
:104B300002E06D1C0A2DF5D300BF00213D20015578
:104B4000052E00D30426E662A6640020E064201D42
:104B500000F0FCFB04F1180000F0F8FB2461C6F142
:104B60000500A06164620020206584F854005A4664
:104B70005146484600F03AFB20600B9808B10B986C
:104B80000460BDE8F09F000010B5002407E004EBCE
:104B900084010F4A02EB810000F0CBFB641C052C62
:104BA000F5D30C4800F0C5FB0B4800F0C2FB0B48E6
:104BB00000F0BFFB0A4800F0BCFB0A4800F0B9FB5C
:104BC00004480949086004480849086010BD00000D
:104BD0001002002074020020880200209C020020A5
:104BE000B0020020C40200202C0000203000002071
:104BF00010B50146164800E0006803688B42FBD3FD
:104C00000246436813448B4204D143684C682344F2
:104C1000436001460A464B6813440468A34211D11D
:104C20000C4C03682468A34208D04B68046864688D
:104C300023444B6003681B680B6005E0054B1B6851
:104C40000B6001E003680B60884200D0016010BD7A
:104C5000840000208C0000202DE9F04104460D4620
:104C600016461F464FF0000865602461B5420CD817
:104C7000F01BA169884202D34FF0010811E0211D09
:104C80000948006800F065FB0BE0BE4204D2BD425B
:104C900002D34FF0010804E0211D0448006800F031
:104CA00058FB4046BDE8F081680000206400002009
:104CB00070B5054600F074FBA86B08B9012400E04C
:104CC000002400F097FB204670BD70B5054600F04B
:104CD00067FBA86BE96B884201D1012400E0002446
:104CE00000F088FB204670BDF8B505460F46164813
:104CF0000068C068C468201D00F007FBE069012857
:104D00001DD1A06941192B463A462046FFF7A4FF62
:104D1000A8B1002003462A4601460090204601F033
:104D2000C1FB064656B900BF502080F31188BFF37F
:104D30004F8FBFF36F8F00BF00BFFEE700BF20465D
:104D4000616A8847F8BD00006400002070B586B035
:104D50006AE00398002867DB059C606908B90120B8
:104D600000E0002010B9201D00F0CFFA02A800F0EA
:104D7000BDF8054603980A2854D2DFE800F009057B
:104D80000731334F0608323400BF00BF00BF00BFF9
:104D90000498A269811803462A462046FFF75CFF63
:104DA000E8B12046616A8847E069012817D10020F0
:104DB00000900498A169421800231946204601F08A
:104DC00071FB064656B900BF502080F31188BFF32F
:104DD0004F8FBFF36F8F00BF00BFFEE700BF22E021
:104DE00000BF20E000BF0498A061A06908B10120C5
:104DF00000E0002050B900BF502080F31188BFF3BD
:104E00004F8FBFF36F8F00BF00BFFEE7A06941194E
:104E10002B462A462046FFF71FFF04E0204600F0FD
:104E200007FB00E000BF00BF00231A4603A90448A7
:104E3000006800F02BFE00288BD106B070BD00008A
:104E40006C000020F8B505460C4600F0EDFC684605
:104E500000F04CF80646009820BB44B9B54206D88D
:104E600001F072FA31462846FFF73EFF1CE03CB1E4
:104E70000E480068006808B9012000E000200446E0
:104E8000A91B22460A48006800F07EFB01F05CFA8C
:104E900050B94FF0805007490860BFF34F8FBFF300
:104EA0006F8F01E001F050FAF8BD000068000020AB
:104EB0006C00002004ED00E00A490968096809B99E
:104EC000012100E0002121B14FF0FF31064A1160BD
:104ED00006E004490968C968C868034A4168116066
:104EE000704700002C0000205800002070B50446D8
:104EF00001F0D0F8054607480068854204D200F06A
:104F00000BF80120206001E00020206001480560CE
:104F1000284670BD740000202DE9F84332E0244893
:104F20000068C068056822480068C068C468201D21
:104F300000F0EBF92046616A8847E069012821D139
:104F4000A0694619AE4207D966602461211D184840
:104F5000006800F0FEF915E0002003462A460146ED
:104F60000090204601F09EFA074657B900BF502036
:104F700080F31188BFF34F8FBFF36F8F00BF00BF67
:104F8000FEE700BF0A480068006808B9012000E099
:104F900000200028C3D00648D0F8008005480068EB
:104FA000034908600348C0F80080BDE8F8830000AA
:104FB00064000020680000200E480068401C08B90A
:104FC000012000E0002050B900BF502080F311887C
:104FD000BFF34F8FBFF36F8F00BF00BFFEE700BF6F
:104FE000502080F31188BFF34F8FBFF36F8F00BF46
:104FF00000BFFEE77800002008B500BF6846FFF755
:10500000EDFC044620460099FFF71CFFFFF79EFECB
:10501000F4E770B5044600F0C3F994F9455010E088
:10502000606A08B9012000E0002038B904F12400CA
:1050300001F03EF918B100F0FBFA00E003E0681E51
:1050400045B2002DECDC00BFFF2084F8450000F0E5
:10505000D1F900F0A5F994F9445010E0206908B99D
:10506000012000E0002048B904F1100001F020F90F
:1050700008B100F0DDFA681E45B200E001E0002D45
:10508000ECDC00BFFF2084F8440000F0B3F970BDF1
:105090002DE9F04104464FF0000800F0C5FB4648FA
:1050A000006808B9FFF7AEFC4448006820400028BB
:1050B0006BD1D4B1083404F00700B0B104F007009C
:1050C000C0F10800044404F0070008B9012000E022
:1050D000002050B900BF502080F31188BFF34F8FDC
:1050E000BFF36F8F00BF00BFFEE7002C4DD03448E8
:1050F0000068844249D8334E3046056801E02E46A8
:105100002D686868A04202D228680028F7D12A4892
:105110000068854239D0306800F10808286830609E
:105120006868001B102819D92F1907F0070008B963
:10513000012000E0002050B900BF502080F311880A
:10514000BFF34F8FBFF36F8F00BF00BFFEE76868EC
:10515000001B78606C603846FFF74AFD18496868A4
:105160000968081A1649086008460068164909685F
:10517000884203D212480068134908600F496868E2
:105180000968084368600020286001F0DDF808F035
:10519000070008B9012000E0002050B900BF5020EE
:1051A00080F31188BFF34F8FBFF36F8F00BF00BF35
:1051B000FEE74046BDE8F0818C000020980000200A
:1051C0009000002084000020940000200648006821
:1051D00030B10549096801F14C00C96C491C0160F6
:1051E000014800687047000028000020001F4FF0B1
:1051F00080730360001F21F001030360001F054B53
:10520000036014380260001F6FF00203036020384F
:1052100070470000B94F000800B50346184600F07B
:1052200005F89988081A401E80B200BD0146C8885A
:105230000A89904204DBC8880A89801A80B27047C4
:1052400088880A89801ACA88104480B2F7E770B546
:105250000B4600210CE05C5CC6880568AC55C48830
:10526000641C858894FBF5F605FB1644C480491C34
:105270009142F0DB70BDF0B505460E461446284657
:10528000FFF7CAFF0746A74201DA0120F0BD224618
:1052900031462846FFF7DBFF0020F7E700B52DED8C
:1052A000048B83B041EC190BFBF7A6FA41EC180B09
:1052B00018EE100A18EE901A8DED008B002818BF1A
:1052C0000120084320F00040C0F17F6000F1E04081
:1052D000C00F14D019EE101A19EE900A8DED009B34
:1052E000002918BF0121084320F00040C0F17F6071
:1052F00000F1E040C00F04BF0120FEF7F1FB51ECCC
:10530000180B03B0BDEC048B00BD01460A69D1E95E
:1053100001309860D1E9010358605068884201D19A
:1053200088685060002008611068401E1060106896
:10533000704700F1080141604FF0FF31816000F1DA
:105340000801C16001610021016070470021016115
:10535000704710B502460B685C1C0CB9106907E079
:1053600002F1080000E04068446824689C42FAD9D1
:1053700044684C604C68A160886041600A611468B0
:10538000641C146010BD42684A6093688B60936827
:1053900059609160086103685B1C036070470000FE
:1053A00000BF502080F31188BFF34F8FBFF36F8F82
:1053B00000BF0E480068401C0C49086008460068A1
:1053C000012812D10A480068C0B208B9012000E0E3
:1053D000002050B900BF502080F31188BFF34F8FD9
:1053E000BFF36F8F00BF00BFFEE77047780000205B
:1053F00004ED00E00D48006850B900BF502080F374
:105400001188BFF34F8FBFF36F8F00BF00BFFEE760
:1054100006480068401E054908600846006820B933
:10542000002080F3118800BF00BF70477800002083
:1054300070B506463546002E3FD0083D2C461F4924
:1054400060680968084008B1012000E0002050B9F8
:1054500000BF502080F31188BFF34F8FBFF36F8FD1
:1054600000BF00BFFEE7206808B9012000E000206F
:1054700050B900BF502080F31188BFF34F8FBFF3A6
:105480006F8F00BF00BFFEE70C49606809680840E5
:1054900098B1206888B909496068096888436060E4
:1054A00000F0C2F9064960680968084404490860C8
:1054B0002046FFF79DFB00F047FF70BD98000020DD
:1054C00090000020064800684FF47A71B0FBF1F0BC
:1054D000401E4FF0E021486107200861704700003E
:1054E0000000002070B5FAF7BBFE0446102C16D35E
:1054F00004F1E02090F8F05315480078854201DB74
:10550000012000E0002050B900BF502080F3118836
:10551000BFF34F8FBFF36F8F00BF00BFFEE70D4893
:10552000006800F4E0600C490968884201D8012055
:1055300000E0002050B900BF502080F31188BFF375
:105540004F8FBFF36F8F00BF00BFFEE770BD00003D
:105550007C0000200CED00E08000002002460020CE
:105560000BE0084B53F8303033B9064B43F830109A
:1055700003EBC0035A6002E0401C0828F1D300BFCF
:1055800070470000D00100202DE9F04105460E468D
:1055900017462C46FFF704FF94F94400401C10B94D
:1055A000002084F8440094F94500401C10B9002004
:1055B00084F84500FFF71EFFA06B28B93A46314634
:1055C00004F1240000F056F82046FFF722FDBDE864
:1055D000F081000070B504460025D4B1124800687F
:1055E00008B9012000E0002050B900BF502080F32E
:1055F0001188BFF34F8FBFF36F8F00BF00BFFEE76F
:1056000000F012F900212046FFF780F800F09CFE20
:1056100005463DB94FF0805004490860BFF34F8FF5
:10562000BFF36F8F70BD00006000002004ED00E04C
:1056300001200149086070474C00002070B5044605
:105640000D4654B900BF502080F31188BFF34F8F2F
:10565000BFF36F8F00BF00BFFEE705480168183138
:105660002046FFF776FE01212846FFF74FF870BD70
:105670002800002070B505460E46144655B900BFF7
:10568000502080F31188BFF34F8FBFF36F8F00BF9F
:1056900000BFFEE70648016818312846FFF773FE91
:1056A0000CB14FF0FF3621463046FFF72FF870BDA2
:1056B0002800002070B505462C46002D4BD0264909
:1056C000E06A0968C96A884245D2A06900F00040D2
:1056D00028B921480068C06AC0F10500A061E16AEC
:1056E00001EB81011D4A02EB81016069884201D111
:1056F000012000E0002050B3201DFFF706FE78B91E
:10570000E06A00EB8000154951F8200040B994F898
:105710002C1001208840124909688143104801601B
:105720000D480068C06AE06294F82C10012088409F
:105730000B49096808430A490860E16A01EB8101E5
:10574000064A02EB8100211DFFF71DFE03E002481F
:105750000068C06AE06270BD2800002010020020CE
:105760004000002050B900BF502181F31188BFF3E1
:105770004F8FBFF36F8F00BF00BFFEE7034909687B
:105780000160034909684160704700005000002033
:105790003C0000201CB51D4800210B468222CDE9AB
:1057A00000101BA11C4800F035FC0446012C02D15E
:1057B00000F04CFE0446012C15D100BF502080F3B0
:1057C0001188BFF34F8FBFF36F8F00BF4FF0FF30D3
:1057D0001249086001201249086000201149086040
:1057E00000F070F810E0601C08B1012000E000201B
:1057F00050B900BF502080F31188BFF34F8FBFF323
:105800006F8F00BF00BFFEE71CBD00005C000020E2
:1058100049444C4500000000814A0008580000201F
:10582000440000203C00002002480068401C014960
:1058300008607047600000201D48006818B1012012
:105840001C49086032E000201A4908601A480068C4
:10585000B0FA80F0C0F11F0101EB8100174A52F845
:10586000200008B1012000E0002050B900BF502006
:1058700080F31188BFF34F8FBFF36F8F00BF00BF5E
:10588000FEE701EB81020D4B03EB82004268526898
:10589000426000F108024368934202D142685268B4
:1058A00042604268D268064B1A6000BF7047000031
:1058B000600000204C00002040000020100200206A
:1058C000280000201CB5474800684749884201D09D
:1058D000012000E0002050B900BF502080F3118863
:1058E000BFF34F8FBFF36F8F00BF00BFFEE73D4890
:1058F00000683D49491E884201D0012000E0002097
:1059000050B900BF502080F31188BFF34F8FBFF311
:105910006F8F00BF00BFFEE7344908460078019052
:10592000FF200A4610700846007800909DF800009D
:1059300000F0F0009DF80020904201D1012000E02D
:10594000002050B900BF502080F31188BFF34F8F63
:10595000BFF36F8F00BF00BFFEE79DF8000000F0AF
:105960005000234A10700720224A106009E02148A5
:105970000068401E1F4A10609DF800004006000E9F
:1059800000909DF8000000F080008028EFD01948BA
:1059900000680002174A10601046008800F4E060BA
:1059A0001060124A019810700E482030006840F4D0
:1059B00070000C49203108600846006840F07040D3
:1059C0000860FFF77FFD00200B490860FAF710FC24
:1059D0000A48006840F0404008490860FAF7F8FBC0
:1059E00000201CBD00ED00E071C20F4100E400E0AA
:1059F0007C000020800000207800002034EF00E0D0
:105A000010B500BF502080F31188BFF34F8FBFF354
:105A10006F8F00BF00F044FB18B14FF08050044975
:105A2000086000BF002080F3118800BF10BD000097
:105A300004ED00E02DE9F84305460E4690460DB111
:105A4000012000E0002050B900BF502080F31188F1
:105A5000BFF34F8FBFF36F8F00BF00BFFEE70EB9DC
:105A6000002701E005FB06F707F15000FFF710FBE8
:105A7000044644B104F1500943464A46314628469B
:105A80000094FFF711F82046BDE8F8832DE9FF47A1
:105A900082B005460E461F464FF0000A2C4654B908
:105AA00000BF502080F31188BFF34F8FBFF36F8F7B
:105AB00000BF00BFFEE70EB9206C08B9012000E06E
:105AC000002050B900BF502080F31188BFF34F8FE2
:105AD000BFF36F8F00BF00BFFEE700F0CBFA08B93D
